:020000040800F2
:1000000048520020E90100083D070008D10400081B
:100010003907000865030008FD0E00080000000015
:100020000000000000000000000000004501000882
:10003000BB0300080000000089010008ED0900086A
:10004000030200080302000803020008030200087C
:10005000030200080302000803020008030200086C
:10006000030200080302000803020008030200085C
:10007000030200080302000803020008030200084C
:10008000030200080302000803020008030200083C
:10009000030200080302000803020008030200082C
:1000A000030200080302000803020008030200081C
:1000B000030200080302000803020008030200080C
:1000C00003020008030200080302000803020008FC
:1000D00003020008A50B0008030200080302000841
:1000E00003020008030200080302000803020008DC
:1000F00003020008030200080302000803020008CC
:1001000003020008030200080302000803020008BB
:1001100003020008030200086D0A00080302000839
:10012000030200080302000803020008030200089B
:10013000DFF80CD000F0A2F800480047391800089A
:1001400048520020204B19680868B0E8F00F80F38F
:100150000988BFF36F8F4FF0000080F311884EF0D5
:100160000D0E70470000000006480068006880F32C
:10017000088862B661B6BFF34F8FBFF36F8F00DFA1
:1001800000BF00BF08ED00E0EFF30980BFF36F8F01
:100190000D4B1A6820E9F00F106008B54FF0100001
:1001A00080F3118802F080F84FF0000080F311888E
:1001B000BDE8084019680868B0E8F00F80F30988C6
:1001C000BFF36F8F704700BF3C000020EFF311803A
:1001D0004FF0100181F31188704780F31188704748
:1001E000EFF3058070470000064880470648004747
:1001F000FEE7FEE7FEE7FEE7FEE7FEE7FEE7FEE7D7
:10020000FEE7FEE70D0A000831010008D2B201E066
:1002100000F8012B491EFBD270470022F6E710B50B
:1002200013460A4604461946FFF7F0FF204610BD64
:10023000421C10F8011B0029FBD1801A70470346AD
:1002400011F8012B00F8012B002AF9D1184670474C
:1002500030B50B46014600202022012409E021FA96
:1002600002F59D4205D303FA02F5491B04FA02F593
:100270002844151EA2F10102F1DC30BD064C074DE9
:1002800006E0E06840F0010394E807009847103466
:10029000AC42F6D3FFF750FF4C2800086C2800084A
:1002A0001FB500201B4A0123CDE9012000930390D4
:1002B00003464FF4007218A11A4802F019F9002001
:1002C000194A0223CDE901200093039003464FF41D
:1002D000007216A1184802F00BF90020174A0323F8
:1002E000CDE901200093039003464FF4007214A15E
:1002F000164802F0FDF80020154A0423CDE901203C
:100300000093039003464FF4007212A1144802F0C8
:10031000EFF81FBD00000020765461736B557365C4
:100320007249460069230008040000207654617376
:100330006B4C4544000000003921000808000020F3
:10034000765461736B4D736750726F001122000811
:100350000C000020765461736B537461727400005A
:100360002322000800BFFEE7014609B9094870478B
:10037000012901D10020FAE7022901D10020F6E786
:10038000032901D10020F2E7042901D10020EEE782
:100390000020ECE75401002008B525208DF800006E
:1003A00001208DF8010000208DF8020001208DF859
:1003B0000300684600F0C4F908BD70472DE9F0411C
:1003C000024600250026002000230024002791F883
:1003D00003C00CF00F0591F803C01CF0100F03D000
:1003E00091F802C04CEA050591F800C0BCF1000F7D
:1003F00031D0146800202BE04FF0010C0CFA00F310
:10040000B1F800C00CEA03069E4220D183004FF0F1
:100410000F0C0CFA03F7BC4305FA03FC4CEA040486
:1004200091F803C0BCF1280F06D14FF0010C0CFA73
:1004300000FCC2F814C00AE091F803C0BCF1480FF8
:1004400005D14FF0010C0CFA00FCC2F810C0401CA2
:100450000828D1D31460B1F800C0BCF1FF0F34DD1F
:10046000546800202EE000F1080C4FF0010808FA53
:100470000CF3B1F800C00CEA03069E4221D18300C0
:100480004FF00F0C0CFA03F7BC4305FA03FC4CEADF
:10049000040491F803C0BCF1280F05D100F1080C49
:1004A00008FA0CF8C2F8148091F803C0BCF1480FA8
:1004B00007D100F1080C4FF0010808FA0CF8C2F857
:1004C0001080401C0828CED35460BDE8F0810000A5
:1004D00009A100200BE00A5C124B1A8000BF114AF0
:1004E000121F128812F0400FF9D0421CD0B22A28F5
:1004F000F1D300BFFEE700000D0A456E746572205F
:10050000486172644661756C745F48616E646C65C5
:10051000722C2053797374656D2048616C742E0DB4
:100520000A0000000438014000B585B00121052013
:1005300000F05AF90121880300F056F94FF40070D9
:10054000ADF8100018208DF8130003208DF812006C
:1005500004A91848FFF732FF4FF48060ADF810008F
:1005600004208DF8130004A91248FFF727FF4FF469
:10057000E13000900020ADF80400ADF80600ADF8C1
:100580000800ADF80C000C20ADF80A0069460A48D6
:1005900000F074FB012240F22551074800F049FBAE
:1005A0000121054800F00FFB4021034800F002FB49
:1005B00005B000BD000801400038014009488068CE
:1005C00010F4005F0BD10848006810F0010F06D14D
:1005D0000648806810F4807F01D001207047002019
:1005E000FCE7000000100140080801400020014025
:1005F0000948806810F4005F0BD00848006810F0CC
:10060000010F06D00648806810F4807F01D10120D8
:1006100070470020FCE7000000100140080801407E
:10062000002001400948806810F4005F0BD00848A2
:10063000006810F0010F06D00648806810F4807F33
:1006400001D0012070470020FCE7000000100140AD
:1006500008080140002001400948806810F4005F4C
:100660000BD00848006810F0010F06D106488068DA
:1006700010F4807F01D1012070470020FCE70000CA
:100680000010014008080140002001400448806833
:1006900010F4004F01D1012070470020FCE700005A
:1006A000002001400448006810F0080F01D101202B
:1006B00070470020FCE700000814014004488068EF
:1006C00010F4804F01D1012070470020FCE70000AA
:1006D000002001400448806810F4005F01D101202F
:1006E00070470020FCE700000020014004488068BB
:1006F00010F0800F01D1012070470020FCE70000BE
:10070000002001400948806810F4005F0BD10848C0
:10071000006810F0010F06D00648806810F4807F52
:1007200001D0012070470020FCE7000000100140CC
:10073000080801400020014000BFFEE770470000AC
:1007400070B5002100230F22C4780CB3164C246826
:1007500004F4E064C4F5E064210AC1F10403CA4072
:10076000447804FA03F184781440214309010F4CC2
:100770000678A155047804F01F050124AC400578E3
:100780006D114FF0E02606EB8505C5F8004109E044
:10079000047804F01F050124AC40054D067876115D
:1007A00045F8264070BD00000CED00E000E400E0DC
:1007B00080E100E002490143024A116070470000F5
:1007C0000000FA050CED00E029B1064AD2690243A7
:1007D000044BDA6104E0034AD2698243014BDA61D7
:1007E000704700000010024029B1064A9269024396
:1007F000044B9A6104E0034A92698243014B9A6177
:10080000704700000010024030B500210022002493
:1008100000232D4D6D6805F00C0121B1042905D090
:10082000082923D105E0294D056022E0274D056008
:100830001FE0254D6D6805F47012234D6D6805F4B9
:100840008034022505EB92421CB9214D55430560C9
:100850000BE01D4D6D6815F4003F03D01C4D554352
:10086000056002E0194D5543056002E0174D056033
:1008700000BF00BF144D6D6805F0F0010909154D6A
:100880006B5C0568DD4045600F4D6D6805F4E06107
:10089000090A104D6B5C4568DD4085600A4D6D6846
:1008A00005F46051C90A0B4D6B5C4568DD40C560BD
:1008B000054D6D6805F44041890B074D6B5CC568BB
:1008C000B5FBF3F5056130BD0010024000127A005F
:1008D00000093D00140000202400002008B501217B
:1008E0000820FFF781FF03208DF8020010208DF80B
:1008F00003000420ADF8000069460248FFF75EFDE2
:1009000008BD0000000C014010B500F001F810BD5A
:100910000CB50020019000903248006840F480300F
:100920003049086000BF2F48006800F40030009094
:100930000198401C0190009818B90198B0F5A06F7B
:10094000F1D12848006810F4003F02D00120009047
:1009500001E0002000900098012842D12248006860
:1009600040F01000204908600846006820F00300AD
:1009700008600846006840F00200086019484068B6
:10098000184948600846406848600846406840F496
:10099000806048600846406820F47C104860084643
:1009A000406840F4E81048600846006840F08070F5
:1009B000086000BF0B48006810F0007FFAD00948BB
:1009C000406820F00300074948600846406840F04E
:1009D0000200486000BF0348406800F00C0008288F
:1009E000F9D10CBD001002400020024010B5FFF705
:1009F000EDFB01F019FE18B14FF08050024908607C
:100A00000020FFF7EAFB10BD04ED00E010B513482D
:100A1000006840F00100114908600846406810492C
:100A200008400E494860084600680E4908400B49D6
:100A300008600846006820F4802008600846406886
:100A400020F4FE0048604FF41F008860FFF75CFF51
:100A50004FF000600449086010BD00000010024023
:100A60000000FFF8FFFFF6FE08ED00E010B50121E1
:100A7000064800F02AF840B105480068401C0449C7
:100A800008600121014800F011F810BD001000407D
:100A90001000002021B1028842F08002028004E0B0
:100AA00002884FF67F731A4002807047CA43028261
:100AB000704721B1028842F00102028004E00288FE
:100AC0004FF6FE731A400280704730B50246002090
:100AD00000230024158A05EA0103958905EA01042B
:100AE00013B10CB1012000E0002030BD1AB18389A0
:100AF0000B43838102E083898B438381704700002D
:100B0000002202881D4B98420ED01D4B98420BD0FC
:100B1000B0F1804F08D01B4B984205D01A4B984239
:100B200002D01A4B984204D14FF68F731A404B886B
:100B30001A43174B984207D0164B984204D04FF6F1
:100B4000FF431A40CB881A4302808B8883850B8829
:100B500003850A4B98420BD0094B984208D00E4BA4
:100B6000984205D00D4B984202D00D4B984201D1CE
:100B70000B7A03860123838270470000002C01401A
:100B8000003401400004004000080040000C004018
:100B900000100040001400400040014000440140AB
:100BA0000048014010B5024800F0DDF810BD00001B
:100BB0005401002001F40072B2F5007F00D100BFA3
:100BC000CA430280704721B1828942F40052828177
:100BD00004E082894DF6FF731A408281704770B538
:100BE00002460024002300250020A1F510666A3E7D
:100BF00000D100BFC1F3421501F01F03012606FA20
:100C000003F3012D02D19689334006E0022D02D173
:100C1000168A334001E0968A33400C12012606FA08
:100C200004F41688344013B10CB1012000E0002018
:100C300070BDF0B503460024002600250020A1F574
:100C400010676A3F00D100BF1846C1F3421401F09B
:100C50001F06012707FA06F5012C01D10C3004E02C
:100C6000022C01D1103000E014301AB107682F4374
:100C7000076002E00768AF430760F0BD2DE9F04769
:100C800086B005460E460024A24600BFA1460027B6
:100C9000B08900B100BF2F462C8A4CF6FF7004408B
:100CA000F08804432C82AC894EF6F3100440B088DF
:100CB00031890843718908430443AC81AC8A4FF6FB
:100CC000FF400440B0890443AC8201A8FFF79CFDBB
:100CD0001F48874202D1DDF810A001E0DDF80CA02A
:100CE000A88910F4004F08D00AEBCA0000EB0A10E4
:100CF00031684900B0FBF1F807E00AEBCA0000EBED
:100D00000A1031688900B0FBF1F86420B8FBF0F0FC
:100D100004012009642101FB1089A88910F4004F07
:100D200008D0322000EBC900B0FBF1F000F0070062
:100D3000044308E0322000EB09106421B0FBF1F01D
:100D400000F00F0004432C8106B0BDE8F0870000DE
:100D50000038014001468888C0F308007047C1F39D
:100D600008028280704770B5044640F22551206821
:100D7000FFF735FFE0B12068FFF7ECFFC5B2E18A6D
:100D8000A0684554E08A401C80B2E082E189884234
:100D900001DB0020E082608BE189884202DA608B0F
:100DA000401C6083606A10B12846616A884700BFB2
:100DB00040F227712068FFF712FF08B3A08A60B9DC
:100DC000002240F227712068FFF733FF012240F232
:100DD00026612068FFF72DFF37E0638A6268D15CE7
:100DE0002068FFF7BCFF608A401C80B26082A18946
:100DF000884201DB00206082A08A401EA08224E09D
:100E000040F226612068FFF7EAFEF0B1A08A50B9EF
:100E1000002240F226612068FFF70BFF206AA0B194
:100E2000206A804711E0638A6268D15C2068FFF71E
:100E300096FF608A401C80B26082A189884201DBF3
:100E400000206082A08A401EA08270BDF8B50446D2
:100E50000E461746002529E00EE0012000F083F839
:100E6000A08A0090002000F07EF8A089BDF8001054
:100E7000884200DD01E000BFEFE700BF705D228A1D
:100E800061688854012000F06EF8208A401C80B20E
:100E90002082A189884201DB00202082A08A401C98
:100EA000A082002000F05FF8681C85B2BD42D3DB51
:100EB000012240F227712068FFF7BBFEF8BD000059
:100EC0000A480B4908600B4848600B4888604FF49B
:100ED00080608881C881002008824882C882088397
:100EE00048838882C86108624862704700380140C0
:100EF000540100207C0100207C05002000BFFEE79B
:100F00000FB4054B10B503A9044A029800F02EF85F
:100F100010BC5DF814FB000027180008A00000209A
:100F20000FB4084B10B504A902AA039800F01EF8EC
:100F3000044602A9002000F0F5F8204610BC5DF838
:100F400014FB00002511000802E008C8121F08C1A8
:100F5000002AFAD170477047002001E001C1121F3A
:100F6000002AFBD1704780F3108870472DE9FF4FAE
:100F70008BB09A460F4605460026C9E0252837D192
:100F800000246D1C6649A04601222B78203B02FA02
:100F900003F0084202D004436D1CF6E728782E289F
:100FA00017D115F8010F44F004042A280ED06FF071
:100FB0002F022878A0F1300109290AD808EB88010E
:100FC00002EB410100EB01086D1CF2E757F8048BBE
:100FD0006D1C287869283FD006DC002871D0632872
:100FE0000CD0642804D137E0732811D075284ED076
:100FF00052460D99904706F1010688E017F8040B58
:101000008DF8000000208DF80100E946012003E082
:1010100057F8049B4FF0FF3061074FF0000401D4F4
:101020000AE0641C44450DDA8442FADB19F8041026
:101030000029F6D106E0641C8442FCDB19F8041098
:101040000029F8D1264404E019F8010B52460D9905
:101050009047641EF8D25AE001CF4FF00A0B0028E7
:1010600004DAC0F100004FF02D0102E0210504D5A3
:101070002B218DF82410012103E0E10705D0202168
:10108000F7E70DF1200908910CE00021F9E701CF05
:101090004FF00A0BF9E75946FFF7DAF801F1300291
:1010A00009F8012D0028F6D1ADEB090000F1200B65
:1010B000600701D44FF00108D84503DDA8EB0B0011
:1010C00001E029E000208046002406E009A85246FD
:1010D000005D0D999047761C641C08988442F5DBEE
:1010E00004E0302052460D999047761CB8F100017B
:1010F000A8F10108F5DC05E019F8010B52460D993D
:101100009047761CBBF10001ABF1010BF4DC6D1CC8
:10111000287800287FF432AF0FB03046BDE8F08F5A
:10112000092801000A68531C0B601070704700000A
:1011300070B50546304800EB05142068804700284C
:101140003ED02079052802DA0520207152E020796E
:101150000A2803DA2079401C20714BE0A07A38B9C4
:101160000120A07205EB4501491CC8B200F026FA27
:10117000208900283EDDE088218988420DDAE08858
:10118000401C80B2E0802189884233D105EB4501C3
:10119000C91CC8B200F012FA2CE0E07A002829DD60
:1011A000207B401CC0B22073E17A884222DB002001
:1011B000207305EB4501491CC8B200F0FFF919E0A6
:1011C0002079052802DD0520207110E0207918B172
:1011D0002079401E20710AE0A07A012807D1002062
:1011E000A07205EB4501891CC8B200F0E7F90020A8
:1011F000E080207370BD0000A40000200B48807ABE
:101200000A4AD27A904201D1002070470748807A7A
:10121000064A115C1046807A401CC0B290720A28BF
:1012200001DB002090720846EFE700004401002037
:1012300001460020244A914201D1C81442E0234AC9
:10124000914201D148143DE0214A914202D14FF42C
:10125000002037E01F4A914202D14FF4801031E064
:101260001D4A914202D14FF400102BE0B1F1804FA2
:1012700001D1012026E0194A914201D1022021E04A
:10128000174A914201D104201CE0164A914201D133
:10129000082017E0144A914201D1102012E0134AAD
:1012A000914201D120200DE0114A914201D140200C
:1012B00008E0104A914201D1802003E00E4A914299
:1012C00000D1881570470000002C01400034014017
:1012D000004C014000500140005401400004004017
:1012E00000080040000C00400010004000140040C6
:1012F00000180040001C00400020004010B54FF4D2
:101300004070FFF757FA00F0FFF800F0C5F800F062
:1013100001F810BD10B500F055F800F001F810BD4F
:1013200008B501214FF49A70FFF75EFA03208DF89B
:10133000020004208DF80300C002ADF800006946E9
:101340001C48FFF73BF80120ADF8000069461A4839
:10135000FFF734F84FF48070ADF800006946174885
:10136000FFF72CF84FF40040ADF800006946134831
:10137000FFF724F80820ADF8000069461048FFF791
:101380001DF84FF48040ADF8000069460B48FFF7A8
:1013900015F84FF40050ADF8000069460748FFF714
:1013A0000DF88020ADF8000069460448FFF706F804
:1013B00008BD00000010014000080140002001406D
:1013C000001401400021284A9172D172117300204B
:1013D00018E06421254A02EB001211810221234A00
:1013E00002EB001211710021204A02EB00129172EF
:1013F0001E4A02EB0012D1721C4A02EB001211735A
:10140000411CC8B20A28E4DB642218490A87052275
:1014100081F83B206422A1F84820052281F84B2066
:101420006422A1F85820052281F85B206422A1F8EB
:101430006820052281F86B200D490C4A11600D4986
:1014400011610D4911620D4911630D4911640D4976
:1014500011650D4911660D4911670D49C2F88010DB
:101460000C49C2F89010704744010020A4000020ED
:10147000BD05000825060008590600088D0600086D
:10148000A5060008BD060008D5060008ED06000800
:1014900005070008F105000808B501218020FFF7C5
:1014A000A3F9012000F046F8022000F043F80320E1
:1014B00000F040F8042000F03DF803208DF8020011
:1014C00010208DF80300C001ADF8000069460D48FA
:1014D000FEF774FF8020ADF8000069460948FEF76A
:1014E0006DFF4FF48070ADF8000069460548FEF7C7
:1014F00065FF4FF40070ADF8000069460148FEF743
:101500005DFF08BD001C014010B5FFF7D9FCFFF7D7
:101510000BF8FFF7E3F9FEF73FFF10BD10B500240D
:1015200004E02046FFF704FE601CC4B20A2CF8DB7E
:1015300010BD0000411EC8B220B94FF400610B4A33
:10154000116011E0012803D18021084A11600BE0ED
:10155000022803D1C101054A116005E0032803D127
:101560004FF40071014A116070470000101C0140E7
:10157000012806D11049096881F400610E4A116002
:1015800019E0022806D10C49096881F080010A4A55
:10159000116010E0032806D10749096881F48071C1
:1015A000054A116007E0042805D10349096881F460
:1015B0000071014A116070470C1C01400649C97A4C
:1015C000054A50541146C97A491CC9B2D1720A2938
:1015D00001DB0021D1727047440100202DE9FF5F3B
:1015E00004460D4691469A467448844202D0744897
:1015F000844207D12046FFF71BFE83460121FFF7F7
:10160000F3F806E02046FFF713FE83460121FFF7BB
:10161000DBF8002D41D100212046FFF74AFAAB4606
:101620006648844202D14FF0190B28E0B4F1804F94
:1016300002D14FF01C0B22E06248844202D14FF0ED
:101640001D0B1CE06048844202D14FF01E0B16E0D7
:101650005E48844202D14FF0320B10E05C48844275
:1016600002D14FF0360B0AE05A48844202D14FF0C3
:10167000370B04E05248844201D14FF02C0B8DF817
:1016800000B08DF801908DF802A000208DF80300C5
:101690006846FFF755F8BDE8FF9F484884420BD0E5
:1016A0004748844208D04C48844205D04B48844285
:1016B00002D04B48844202D14A48066801E04948BA
:1016C0000668642D0AD242F20F7842F21070B6FB1F
:1016D000F0F0B0FBF5F0401E87B213E040F6B830F2
:1016E000854209D24FF063086420B6FBF0F0B0FBEE
:1016F000F5F0401E87B205E04FF00008B6FBF5F0AC
:10170000401E87B2ADF80870ADF804800020ADF837
:101710000A00ADF806008DF80C0001A92046FFF77D
:10172000EFF901212046FFF7B5F9012211462046C5
:10173000FFF7DCF901212046FFF7BBF94FF0000B62
:101740001E48844202D14FF0190B28E0B4F1804FBB
:1017500002D14FF01C0B22E01A48844202D14FF014
:101760001D0B1CE01848844202D14FF01E0B16E0FE
:101770001648844202D14FF0320B10E014488442E4
:1017800002D14FF0360B0AE01248844202D14FF0EA
:10179000370B04E00A48844201D14FF02C0B8DF83E
:1017A00000B08DF801908DF802A001208DF80300A3
:1017B0006846FEF7C5FF00BF6DE70000002C014042
:1017C000003401400004004000080040000C0040CC
:1017D0000010004000140040004C01400050014047
:1017E00000540140280000202DE9F04105460E4636
:1017F00017462846FEF7B8FD04460CB9BDE8F0814F
:10180000E06908B1E06980473A4631462046FFF773
:101810001DFB00BFF2E713B50446012201A92046D3
:10182000FFF7E2FF1CBD70B504460D46E1B2002093
:10183000FFF7F1FF204670BD012080F3108800BF44
:10184000FFF75CFD00F0D4FBFEF72AFD00F0F0FC92
:1018500000BFFEE710B504460E48006844600E481D
:101860000068844207D20B480168091D0B480068D4
:1018700000F00EFB0CE007480168091D08480068ED
:1018800000F006FB07480068844201D20548046066
:1018900010BD00003C00002048000020780000201F
:1018A00074000020640000202DE9F04105460F4639
:1018B0001FB9A80000F0DEF900E03846064656B130
:1018C000582000F0D7F904460CB1266304E03046F6
:1018D00000F03CFB00E0002424B1A900A522206B0D
:1018E000FEF794FC2046BDE8F081000070B523E0CF
:1018F00000F0D2FC1348006808B9012000E0002085
:10190000054600F02FFFBDB900F0E8FA0D48C068A9
:10191000C468201D00F046FA0B480068401E0A49C2
:1019200008600A480068401E0849086000F0F8FA9C
:10193000204600F00DF800BF044800680028D7D109
:1019400070BD00001C0A0020440000204000002060
:1019500010B50446206B00F0F9FA204600F0F6FAC4
:1019600010BD000030B54FF48843174810F0070F42
:1019700005D0C01D20F00700134C041B1B1B0246A2
:10198000124C22600024114D6C60D018083820F0F1
:1019900007000F4C206000240D4D2D686C600C4D2D
:1019A0002D682C601146441A4C60094C24680C6068
:1019B000084D4C682C60084D4C682C604FF000447A
:1019C000064D2C6030BD0000440A00209800002025
:1019D00088000020900000208C000020940000204F
:1019E00000BFFFF783FF034800680128F9D900F022
:1019F000F3FAF6E77C0900202DE9F04704460F468C
:101A000016469946DDF82080002507E0795D04F14F
:101A100034004155785D00B902E06D1C102DF5D3FE
:101A200000BF002143200155052E00D30426E662A5
:101A3000201D00F02AFA04F1180000F026FA2461B3
:101A4000C6F10500A06164620020E064206584F8AE
:101A50005400BDE8F087000010B5002407E004EB57
:101A600084010F4A02EB810000F002FA641C052C8D
:101A7000F5D30C4800F0FCF90B4800F0F9F90B48DD
:101A800000F0F6F90A4800F0F3F90A4800F0F0F91E
:101A900004480949086004480849086010BD00006E
:101AA0007C090020E0090020F4090020080A002039
:101AB0001C0A0020300A002074000020780000205A
:101AC00010B50146164800E0006803688B42FBD35E
:101AD0000246436813448B4204D143684C68234454
:101AE000436001460A464B6813440468A34211D17F
:101AF0000C4C03682468A34208D04B6804686468EF
:101B000023444B6003681B680B6005E0054B1B68B2
:101B10000B6001E003680B60884200D0016010BDDB
:101B200098000020880000202DE9F04706460C466A
:101B300090460025206800284BD02046416849681F
:101B4000416000F1080142688A4202D14168496857
:101B500041604168D1F80C9000BF20464168496857
:101B6000416000F1080142688A4202D14168496837
:101B700041604168CF6806EB4510076007F134000B
:101B800006EB45114860786C06EB4511886006EB62
:101B9000451080F80C80F86A06EB45110861B8F131
:101BA000030F05D1B86A18B1022006EB451108737E
:101BB000002006EB45114861F86C06EB4511886181
:101BC000386B00F023F806EB451188836D1C4F45F8
:101BD000C3D12846BDE8F0870A490968096809B9F0
:101BE000012100E0002121B14FF0FF31064A1160D0
:101BF00006E004490968C968C868034A4168116079
:101C0000704700007400002064000020024600219C
:101C100001E0521C491C1078A528FAD0890888B226
:101C20007047000007480068401C01D1012000E017
:101C3000002018B9FEF7CAFA00BFFEE7FEF7C6FAA1
:101C400000BFFEE77C00002070B505460E46314619
:101C50002846FEF7F4FA2846FEF7EAFA044602E0C0
:101C600020202855641C0F2CFAD300202855281951
:101C700070BD00002DE9F04104464FF0000800F06F
:101C80000BFB3B48006808B9FFF76CFE3948006859
:101C900004425DD19CB1083414F0070F0FD004F05A
:101CA0000700C0F10800044414F0070F01D101201F
:101CB00000E0002018B9FEF789FA00BFFEE7002C0B
:101CC00046D02D480068844242D82C4E30460568E4
:101CD00001E02E462D686868A04202D228680028DC
:101CE000F7D123480068854232D0306800F10808F7
:101CF000286830606868001B102812D92F1917F067
:101D0000070F01D1012000E0002018B9FEF75EFAAC
:101D100000BFFEE76868001B78606C603846FFF71C
:101D2000CFFE154968680968081A13490860084613
:101D3000006813490968884203D20F4800681049B7
:101D400008600C49686809680843686000202860DA
:101D500000F008FD18F0070F01D1012000E000207D
:101D600018B9FEF733FA00BFFEE74046BDE8F08140
:101D700088000020940000208C00002098000020A3
:101D800090000020001F4FF080730360001F01606F
:101D9000001F034B036014380260203870470000B6
:101DA000251C000801460A69D1E901309860D1E993
:101DB000010358605068884201D188685060002053
:101DC00008611068401E1060106870472DE9F041EE
:101DD0000546884616460024052700F05DFA1D4892
:101DE0000068804530D300BF7F1E07EB87021A4B87
:101DF00003EB820105EB44100122FFF795FE04443A
:101E0000002FF1D105EB4410022214490968FFF7B5
:101E10008BFE044405EB4410022211490968FFF7C8
:101E200083FE044405EB441004220E49FFF77CFEB8
:101E3000044405EB441003220B49FFF775FE0444EC
:101E400016B10A480068306000F08CFC2046BDE8FE
:101E5000F0810000440000207C0900207400002074
:101E6000780000201C0A0020300A0020100000200A
:101E700000F1080141604FF0FF31816000F108017D
:101E8000C16001610021016070470021016170475C
:101E900010B502460B685C1C01D1106907E002F125
:101EA000080000E04068446824689C42FAD944680D
:101EB0004C604C68A160886041600A611468641CD1
:101EC000146010BD42684A6093688B6093685960E3
:101ED0009160086103685B1C0360704710B5FEF7F2
:101EE00075F90D480068401C0B490860BFF34F8F1F
:101EF000BFF36F8F0846006801280CD107480068BF
:101F000010F0FF0F01D1012000E0002018B9FEF70A
:101F10005DF900BFFEE710BD7C00002004ED00E08D
:101F200010B50948006818B9FEF750F900BFFEE780
:101F300005480068401E044908600846006810B95A
:101F40000020FEF74AF910BD7C00002070B506465F
:101F50003546002E31D0083D2C4618496068096886
:101F6000084201D0012000E0002018B9FEF72EF948
:101F700000BFFEE7206808B9012000E0002018B982
:101F8000FEF724F900BFFEE70C49606809680842C3
:101F900013D0206888B9094960680968884360607F
:101FA00000F07AF906496068096808440449086045
:101FB0002046FFF785FD00F0D5FB70BD94000020A2
:101FC0008C00002003484FF0E021486107200861A1
:101FD000704700003F1901004FF08050034908602E
:101FE000BFF34F8FBFF36F8F7047000004ED00E029
:101FF00010B50023012244F620610248FFF7EEFAF3
:1020000010BD00000010004070B50446002634B337
:102010001548006808B9012000E0002018B9FEF753
:10202000D5F800BFFEE700F037F910480068051941
:102030000F480068001DFFF7B5FE50B90C48006856
:1020400090F82C10012088400A490968814309480A
:1020500001602846FFF7FEFB00F084FB06460EB940
:10206000FFF7BAFF70BD00006800002048000020A4
:102070003C0000204C000020FEB5054600202870E2
:10208000264800680290254909684801FFF7F2FDDB
:102090000446002C40D06A4620460299FFF796FE7F
:1020A000029064210098B0FBF1F0009000980028A5
:1020B0002FD00020019028E0019804EB40108069A7
:1020C0000099B0FBF1F6019804EB401041682846F6
:1020D000FFF7BAFD05464EB1019804EB40103346B8
:1020E0000FA182692846FEF71BFF07E0019804EB69
:1020F00040100EA182692846FEF712FF2846FEF71F
:1021000097F805440198401C0190DDE901018842DF
:10211000D2D32046FFF71AFFFEBD00004400002086
:102120000925750909257525250D0A000925750953
:10213000093C3125250D0A0005E00220FFF718FAB9
:10214000C820FFF761FFF8E77FB50546002028703B
:102150002A4800680390294909684801FFF78AFD69
:102160000446002C49D0002220460399FFF72EFE9A
:1021700003900020029039E0029804EB4010007BAD
:10218000012806D0022806D0032806D0042808D14A
:1021900005E0522607E0422605E0532603E04426E8
:1021A00001E0002600BF00BF029804EB4010416828
:1021B0002846FFF749FD0546029804EB4010806869
:1021C000029904EB4111898BCDE90010029804EBD0
:1021D000401032460AA103692846FEF7A1FE2846B0
:1021E000FEF726F805440298401C0290DDE9020142
:1021F0008842C1D32046FFF7A9FE7FBD44000020DE
:102200000925630925750925750925750D0A00003D
:1022100006E00320FFF7ACF94FF49670FFF7F4FEE9
:10222000F7E704E0FFF77AF90A20FFF7EDFEF9E798
:102230001FB50020009001900290034680220FA15C
:102240000390104800F054F90446012C0FD1FDF71B
:10225000BDFFA01E0C49086001200C490860002049
:102260000B4908600B49086000F0F2F804E01CB963
:10227000FDF7ACFF00BFFEE71FBD000049444C4521
:1022800000000000E1190008640000205000002058
:10229000480000201000002002480068401C01494E
:1022A000086070476800002010B52748006818B122
:1022B00001202649086045E00020244908602448A0
:1022C0000068244908600846006823490968884274
:1022D0000BD92249096801F14C00C96C1D4A1268EA
:1022E0001D4B1B68D21A114401601A4800681A4934
:1022F00008601B480068B0FA80F0C0F11F0404EBCE
:102300008400184951F8200008B1012000E00020A5
:1023100018B9FDF75BFF00BFFEE704EB8401114A2B
:1023200002EB810041684968416000F108014268A0
:102330008A4202D14168496841604168C968074AD8
:10234000116000BF10BD0000680000205800002090
:1023500010000020700000206C0000203C000020D5
:102360004C0000207C090020FEB023E0FEF746FF71
:102370000446002C1BD0012C17D10FA0FEF7C0FD86
:102380001AA0FEF7BDFD01A8FFF7DEFE01A923A0FC
:10239000FEF7B6FD23A0FEF7B3FD01A8FFF76CFE24
:1023A00001A91EA0FEF7ACFD00E000BF00BF142095
:1023B000FFF72AFEDAE700003D3D3D3D3D3D3D3D56
:1023C0003D3D3D3D3D3D3D3D3D3D3D3D3D3D3D3D3D
:1023D0003D3D3D3D3D3D3D3D3D3D3D3D3D3D3D3D2D
:1023E0003D3D3D3D3D3D3D3D3D0D0A00C8CECEF15C
:1023F000C3FB202020202020C8CECEF1D7B4CCAC07
:1024000020D3C5CFC8BCB6202020CAA3D3E0D5BBFB
:1024100020C8CECEF1D0F2BAC50D0A0025730D0A40
:10242000000000000D0AC8CECEF1C3FB2020202002
:10243000202020D4CBD0D0BCC6CAFD202020202014
:1024400020202020CAB9D3C3C2CA0D0A0000000050
:102450001CB52248014609780191FF2102461170FE
:102460000146097800919DF8001001F010011C4A06
:10247000117007211B4A116009E01A490968491EB9
:10248000184A11609DF800104906090E00919DF848
:10249000001001F080018029EFD01249096809027B
:1024A000104A11601146098801F4E06111600B4A7D
:1024B000019911700C48006840F470000A490860E6
:1024C0000846006840F070400860FFF77BFD002080
:1024D00006490860FDF748FE00201CBD00E400E04E
:1024E000800000208400002020ED00E07C0000201F
:1024F0002DE9FF4F81B0804616469A46DDE90E5B16
:10250000B8F1000F03D1FDF761FE00BFFEE7052D16
:1025100001D2012000E0002018B9FDF757FE00BFEE
:10252000FEE730461099FFF7BFF90446002C5DD056
:10253000701E216B01EB800929F0070919F0070FC4
:1025400001D1012000E0002018B9FDF73FFE00BFD7
:10255000FEE700962A462046119B0299FFF74CFAA7
:10256000524641464846FFF70DFC2060BBF1000F84
:1025700001D0CBF80040FFF7B1FC25480068401CB3
:10258000234908602348006840B92248046008468F
:10259000006801280CD1FFF75FFA09E01E480068C7
:1025A00030B91C480068C06AA84201D819480460C4
:1025B0001A480068401C19490860084600686064B1
:1025C00094F82C10012088401549096808431449E3
:1025D0000860E16A01EB8101124A02EB8100211DD2
:1025E000FFF770FC0127FFF79BFC01E04FF0FF377E
:1025F000012F09D10848006830B106480068C06A58
:10260000A84201D2FFF7E8FC384605B0BDE8F08FDC
:10261000440000203C00002050000020600000200A
:102620004C0000207C0900202DE9F0414FF000080B
:1026300041480068002872D140480068401C3F496A
:10264000086008460668DEB93D480068006808B9B9
:10265000012000E0002018B9FDF7B8FD00BFFEE73B
:1026600037480768374800683549086035480760CB
:1026700035480068401C34490860FFF7ADFA00BFD8
:102680003248006886423CD300BF2D48006800688D
:1026900008B9012000E0002020B14FF0FF302B49A5
:1026A00008602DE026480068C068C4686568AE42CE
:1026B00002D22648056023E0201DFFF773FBA06AC5
:1026C00018B104F11800FFF76DFB94F82C100120ED
:1026D00088401F49096808431D490860E16A01EB09
:1026E00081011C4A02EB8100211DFFF7EBFB1A4917
:1026F000E06A0968C96A8842C7D34FF00108C4E795
:1027000000BF15480068C06A00EB8000114951F80D
:102710002000012808D94FF0010805E0FFE70F4825
:102720000068401C0D4908600D48006808B14FF072
:1027300001084046BDE8F081680000204800002004
:1027400074000020780000205C000020640000205D
:102750004C0000207C0900203C0000205400002098
:102760005800002070B500253048006818B9FDF702
:102770002DFD00BFFEE7FFF7B1FB2C480068401EAF
:102780002A4908600846006800284BD1284800689C
:10279000002847D024E02748C068C46804F1180026
:1027A000FFF700FB201DFFF7FDFA94F82C10012025
:1027B00088402149096808431F490860E16A01EB24
:1027C00081011E4A02EB8100211DFFF77BFB1C49A2
:1027D000E06A0968C96A884202D301201949086081
:1027E0001448006808B9012000E000200028D2D079
:1027F0001548006878B10AE0FFF716FF10B1012014
:102800001049086010480068401E0F4908600E48D3
:1028100000680028F0D10B480068012802D101258A
:10282000FFF7DAFBFFF77CFB284670BD680000204D
:1028300044000020080A00204C0000207C090020F1
:102840003C00002058000020540000206C280008A4
:1028500000000020A4000000480F00081029000814
:10286000A4000020A4510000580F00080000000040
:102870000000000000000000000000000000000058
:102880000000000001020304010203040607080916
:102890000204060800A24A04000000000000000034
:1028A0000102030406070809000000000000000000
:1028B0000000000000000000000000000000000018
:1028C0000000000000000000000000000000000008
:1028D00000000000000000000000000000000000F8
:1028E0000000000000000000AAAAAAAA0000000040
:1028F00000000000000000000000000000000000D8
:1029000000000000000000000000000000000000C7
:0400000508000131BD
:00000001FF
