:020000040800F2
:1000000048560020E901000841070008D50400080F
:100010003D07000865030008F90E00080000000015
:100020000000000000000000000000004501000882
:10003000BB0300080000000089010008F109000866
:10004000030200080302000803020008030200087C
:10005000030200080302000803020008030200086C
:10006000030200080302000803020008030200085C
:10007000030200080302000803020008030200084C
:10008000030200080302000803020008030200083C
:10009000030200080302000803020008030200082C
:1000A000030200080302000803020008030200081C
:1000B000030200080302000803020008030200080C
:1000C00003020008030200080302000803020008FC
:1000D00003020008A90B000803020008030200083D
:1000E00003020008030200080302000803020008DC
:1000F00003020008030200080302000803020008CC
:1001000003020008030200080302000803020008BB
:100110000302000803020008710A00080302000835
:10012000030200080302000803020008030200089B
:10013000DFF80CD000F0A2F8004800472D170008A7
:1001400048560020204B19680868B0E8F00F80F38B
:100150000988BFF36F8F4FF0000080F311884EF0D5
:100160000D0E70470000000006480068006880F32C
:10017000088862B661B6BFF34F8FBFF36F8F00DFA1
:1001800000BF00BF08ED00E0EFF30980BFF36F8F01
:100190000D4B1A6820E9F00F106008B54FF0100001
:1001A00080F3118802F00CF84FF0000080F3118802
:1001B000BDE8084019680868B0E8F00F80F30988C6
:1001C000BFF36F8F704700BF3C000020EFF311803A
:1001D0004FF0100181F31188704780F31188704748
:1001E000EFF3058070470000064880470648004747
:1001F000FEE7FEE7FEE7FEE7FEE7FEE7FEE7FEE7D7
:10020000FEE7FEE7110A000831010008D2B201E062
:1002100000F8012B491EFBD270470022F6E710B50B
:1002200013460A4604461946FFF7F0FF204610BD64
:10023000421C10F8011B0029FBD1801A70470346AD
:1002400011F8012B00F8012B002AF9D1184670474C
:1002500030B50B46014600202022012409E021FA96
:1002600002F59D4205D303FA02F5491B04FA02F593
:100270002844151EA2F10102F1DC30BD064C074DE9
:1002800006E0E06840F0010394E807009847103466
:10029000AC42F6D3FFF750FF64270008842700081C
:1002A0001FB500201B4A0123CDE9012000930390D4
:1002B00003464FF4007218A11A4802F0A5F8002076
:1002C000194A0223CDE901200093039003464FF41D
:1002D000007216A1184802F097F80020174A03236D
:1002E000CDE901200093039003464FF4007214A15E
:1002F000164802F089F80020154A0423CDE90120B0
:100300000093039003464FF4007212A1144802F0C8
:100310007BF81FBD00000020765461736B55736538
:10032000724946008122000804000020765461735F
:100330006B4C4544000000003120000808000020FC
:10034000765461736B4D736750726F00092100081A
:100350000C000020765461736B537461727400005A
:100360001D21000800BFFEE7014609B90948704792
:10037000012901D10020FAE7022901D10020F6E786
:10038000032901D10020F2E7042901D10020EEE782
:100390000020ECE75401002008B525208DF800006E
:1003A00001208DF8010000208DF8020001208DF859
:1003B0000300684600F0C6F908BD70472DE9F0411A
:1003C000024600250026002000230024002791F883
:1003D00003C00CF00F0591F803C00CF0100CBCF139
:1003E000000F03D091F802C04CEA050591F800C057
:1003F000BCF1000F31D0146800202BE04FF0010C4D
:100400000CFA00F3B1F800C00CEA03069E4220D1BA
:1004100083004FF00F0C0CFA03F7BC4305FA03FC02
:100420004CEA040491F803C0BCF1280F06D14FF048
:10043000010C0CFA00FCC2F814C00AE091F803C0E9
:10044000BCF1480F05D14FF0010C0CFA00FCC2F8CA
:1004500010C0401C0828D1D31460B1F800C0BCF112
:10046000FF0F34DD546800202EE000F1080C4FF03F
:10047000010808FA0CF3B1F800C00CEA03069E422A
:1004800021D183004FF00F0C0CFA03F7BC4305FA9F
:1004900003FC4CEA040491F803C0BCF1280F05D119
:1004A00000F1080C08FA0CF8C2F8148091F803C0A7
:1004B000BCF1480F07D100F1080C4FF0010808FA11
:1004C0000CF8C2F81080401C0828CED35460BDE858
:1004D000F081000009A100200CE00A5C124B1A8098
:1004E00000BF114A121F128802F04002002AF8D001
:1004F000421CD0B22A28F0D300BFFEE70D0A456E99
:1005000074657220486172644661756C745F4861FD
:100510006E646C65722C2053797374656D2048612C
:100520006C742E0D0A0000000438014000B585B03F
:100530000121052000F058F90121880300F054F949
:100540004FF40070ADF8100018208DF81300032050
:100550008DF8120004A91848FFF730FF4FF48060AF
:10056000ADF8100004208DF8130004A91248FFF71D
:1005700025FF4FF4E13000900020ADF80400ADF805
:100580000600ADF80800ADF80C000C20ADF80A002C
:1005900069460A4800F074FB012240F225510748E1
:1005A00000F049FB0121054800F00FFB4021034802
:1005B00000F002FB05B000BD00080140003801401A
:1005C0000948806800F4005058B90848006800F0F5
:1005D000010030B90648806800F4807008B101203D
:1005E00070470020FCE700000010014008080140AF
:1005F000002001400948806800F4005058B10848C4
:10060000006800F0010030B10648806800F4807096
:1006100008B9012070470020FCE7000000100140ED
:1006200008080140002001400948806800F400509B
:1006300058B10848006800F0010030B106488068F1
:1006400000F4807008B1012070470020FCE7000032
:10065000001001400808014000200140094880685E
:1006600000F4005058B10848006800F0010030B9AB
:100670000648806800F4807008B9012070470020A7
:10068000FCE7000000100140080801400020014084
:100690000448806800F4004008B901207047002039
:1006A000FCE70000002001400448006800F008005A
:1006B00008B9012070470020FCE700000814014041
:1006C0000448806800F4804008B901207047002089
:1006D000FCE70000002001400448806800F400505E
:1006E00008B9012070470020FCE70000002001400D
:1006F0000448806800F0800008B90120704700209D
:10070000FCE70000002001400948806800F4005028
:1007100058B90848006800F0010030B10648806808
:1007200000F4807008B1012070470020FCE7000051
:1007300000100140080801400020014000BFFEE712
:100740007047000070B5002100230F22C47804B365
:10075000154C246804F4E064C4F5E064210AC1F196
:100760000403CA40447804FA03F184781440214316
:1007700009010E4C0678A155047804F01F050124E8
:10078000AC4005786D11AD0005F1E025C5F80041DC
:1007900009E0047804F01F050124AC40044D0678FC
:1007A000761145F8264070BD0CED00E000E400E055
:1007B00080E100E002490143024A116070470000F5
:1007C0000000FA050CED00E029B1064AD2690243A7
:1007D000044BDA6104E0034AD2698243014BDA61D7
:1007E000704700000010024029B1064A9269024396
:1007F000044B9A6104E0034A92698243014B9A6177
:10080000704700000010024030B500210022002493
:1008100000232D4D6D6805F00C0121B1042905D090
:10082000082923D105E0294D056022E0274D056008
:100830001FE0254D6D6805F47012234D6D6805F4B9
:100840008034022505EB92421CB9214D55430560C9
:100850000BE01D4D6D6805F400351DB11C4D554371
:10086000056002E0194D5543056002E0174D056033
:1008700000BF00BF144D6D6805F0F0010909154D6A
:100880006B5C0568DD4045600F4D6D6805F4E06107
:10089000090A104D6B5C4568DD4085600A4D6D6846
:1008A00005F46051C90A0B4D6B5C4568DD40C560BD
:1008B000054D6D6805F44041890B074D6B5CC568BB
:1008C000B5FBF3F5056130BD0010024000127A005F
:1008D00000093D00140000202400002008B501217B
:1008E0000820FFF781FF03208DF8020010208DF80B
:1008F00003000420ADF8000069460248FFF75EFDE2
:1009000008BD0000000C014010B500F001F810BD5A
:100910000CB50020019000903348006840F480300E
:100920003149086000BF3048006800F40030009092
:100930000198401C0190009818B90198B0F5A06F7B
:10094000F1D12948006800F4003010B10120009076
:1009500001E0002000900098012843D1234800685E
:1009600040F01000214908600846006820F00300AC
:1009700008600846006840F0020008601A484068B5
:10098000194948600846406848600846406840F495
:10099000806048600846406820F47C104860084643
:1009A000406840F4E81048600846006840F08070F5
:1009B000086000BF0C48006800F000700028F9D003
:1009C0000948406820F0030007494860084640682D
:1009D00040F00200486000BF0348406800F00C008F
:1009E0000828F9D10CBD0000001002400020024090
:1009F00010B5FFF7EBFB01F0A3FD18B14FF08050ED
:100A0000024908600020FFF7E8FB10BD04ED00E09C
:100A100010B51348006840F001001149086008460D
:100A20004068104908400E494860084600680E4971
:100A300008400B4908600846006820F480200860E0
:100A40000846406820F4FE0048604FF41F008860AC
:100A5000FFF75AFF4FF000600449086010BD000026
:100A6000001002400000FFF8FFFFF6FE08ED00E076
:100A700010B50121064800F02AF840B10548006889
:100A8000401C044908600121014800F011F810BD24
:100A9000001000401000002021B1028842F08002C6
:100AA000028004E002884FF67F731A40028070478C
:100AB000CA430282704721B1028842F001020280DB
:100AC00004E002884FF6FE731A400280704730B58A
:100AD0000246002000230024158A05EA01039589B7
:100AE00005EA010413B10CB1012000E0002030BD83
:100AF0001AB183890B43838102E083898B4383810D
:100B000070470000002202881D4B98420ED01D4BFA
:100B100098420BD0B0F1804F08D01B4B984205D0C3
:100B20001A4B984202D01A4B984204D14FF68F7359
:100B30001A404B881A43174B984207D0164B9842DD
:100B400004D04FF6FF431A40CB881A4302808B88AB
:100B500083850B8803850A4B98420BD0094B98423A
:100B600008D00E4B984205D00D4B984202D00D4B49
:100B7000984201D10B7A03860123838270470000DB
:100B8000002C0140003401400004004000080040F7
:100B9000000C0040001000400014004000400140E4
:100BA000004401400048014010B5024800F0DDF863
:100BB00010BD00005401002001F40072B2F5007F66
:100BC00000D100BFCA430280704721B1828942F43C
:100BD0000052828104E082894DF6FF731A408281BF
:100BE000704770B50246002400230025002040F61F
:100BF0006A16B14200D100BFC1F3421501F01F03D4
:100C0000012606FA03F3012D02D19689334006E04E
:100C1000022D02D1168A334001E0968A33400C122D
:100C2000012606FA04F41688344013B10CB10120F1
:100C300000E0002070BDF0B503460024002600252A
:100C4000002040F66A17B94200D100BF1846C1F330
:100C5000421401F01F06012707FA06F5012C01D105
:100C60000C3004E0022C01D1103000E014301AB135
:100C700007682F43076002E00768AF430760F0BDD5
:100C80002DE9F04786B005460E460024A24600BF77
:100C9000A1460027B08900B100BF2F462C8A4CF630
:100CA000FF700440F08804432C82AC894EF6F310A8
:100CB0000440B08831890843718908430443AC81FA
:100CC000AC8A4FF6FF400440B0890443AC8201A8CF
:100CD000FFF79AFD1F48874202D1DDF810A001E01E
:100CE000DDF80CA0A88900F4004040B10AEBCA006E
:100CF00000EB0A1031684900B0FBF1F807E00AEB9D
:100D0000CA0000EB0A1031688900B0FBF1F86420DA
:100D1000B8FBF0F004012009642101FB1089A889C7
:100D200000F4004040B1322000EBC900B0FBF1F00C
:100D300000F00700044308E0322000EB09106421B2
:100D4000B0FBF1F000F00F0004432C8106B0BDE8C9
:100D5000F08700000038014001468888C0F3080091
:100D60007047C1F308028280704770B5044640F2B4
:100D700025512068FFF735FFE0B12068FFF7ECFF51
:100D8000C5B2E18AA0684554E08A401C80B2E08286
:100D9000E189884201DB0020E082608BE1898842A2
:100DA00002DA608B401C6083606A10B12846616A79
:100DB000884700BF40F227712068FFF712FF08B391
:100DC000A08A60B9002240F227712068FFF733FF44
:100DD000012240F226612068FFF72DFF37E0638A89
:100DE0006268D15C2068FFF7BCFF608A401C80B25B
:100DF0006082A189884201DB00206082A08A401EB7
:100E0000A08224E040F226612068FFF7EAFEF0B1FC
:100E1000A08A50B9002240F226612068FFF70BFF3C
:100E2000206AA0B1206A804711E0638A6268D15CC1
:100E30002068FFF796FF608A401C80B26082A1891B
:100E4000884201DB00206082A08A401EA08270BD23
:100E5000F8B504460E461746002525E00CE000F0E4
:100E6000B9FFA08A009000F0D7FFA089BDF800105C
:100E7000884200DD01E000BFF1E700BF705D228A1B
:100E80006168885400F0A6FF208A401C80B220824E
:100E9000A189884201DB00202082A08A401CA08218
:100EA00000F0BAFF681C85B2BD42D7DB012240F2D8
:100EB00027712068FFF7BFFEF8BD00000A480B4904
:100EC00008600B4848600B4888604FF48060888158
:100ED000C881002008824882C882088348838882AB
:100EE000C861086248627047003801405401002020
:100EF0007C0100207C05002000BFFEE70FB4054BFD
:100F000010B503A9044A029800F02CF810BC5DF853
:100F100014FB00001B170008A00000200FB4084BB2
:100F200010B504A902AA039800F01CF8044602A90F
:100F3000002000F0F3F8204610BC5DF814FB000020
:100F40001D11000802E008C8121F08C1002AFAD1CA
:100F500070477047002001E001C1121F002AFBD139
:100F6000704700002DE9FF4F8BB09A460F460546AB
:100F7000002606E025280BD052460D9990476D1C9F
:100F8000761C28780028F5D10FB03046BDE8F08FE8
:100F90000024A0460122604900E0044315F8013F07
:100FA000203B02FA03F00842F7D128782E2817D107
:100FB00015F8010F44F004042A280ED06FF02F0218
:100FC0002878A0F1300109290AD808EB880102EB42
:100FD000410100EB01086D1CF2E757F8048B6D1C12
:100FE000287869283ED006DC0028CDD063280BD0B5
:100FF000642804D136E0732810D075284BD05246AF
:101000000D999047761C85E017F8040B8DF80000C9
:1010100000208DF80100E946012003E057F8049B09
:101020004FF0FF3061074FF0000401D40AE0641C68
:1010300044450DDA8442FADB19F804100029F6D190
:1010400006E0641C8442FCDB19F804100029F8D186
:10105000264404E019F8010B52460D999047641E8E
:10106000F8D257E001CF4FF00A0B002802DA4042D5
:101070002D2102E0210504D52B218DF8241001211A
:1010800003E0E10705D02021F7E70DF120090891E1
:101090000CE00021F9E701CF4FF00A0BF9E75946C0
:1010A000FFF7D6F801F1300209F8012D0028F6D13A
:1010B000ADEB090000F1200B600701D44FF00108EF
:1010C000D84502DDA8EB0B0000E00020804600249C
:1010D00006E009A85246005D0D999047641C761CF5
:1010E00008988442F5DB04E0302052460D99904781
:1010F000761CB8F10001A8F10108F5DC05E019F84B
:10110000010B52460D999047761CBBF10001ABF1E3
:10111000010BF4DC6D1C34E7092801000A68531C3C
:101120000B601070704700000B48807A0A4AD27A30
:10113000904201D1002070470748807A064A115C2E
:101140001046807A401CC0B290720A2801DB002051
:1011500090720846EFE7000044010020014600209D
:10116000244A914201D1C81442E0234A914201D15C
:1011700048143DE0214A914202D14FF4002037E06B
:101180001F4A914202D14FF4801031E01D4A914232
:1011900002D14FF400102BE0B1F1804F01D10120BA
:1011A00026E0194A914201D1022021E0174A9142DA
:1011B00001D104201CE0164A914201D1082017E019
:1011C000144A914201D1102012E0134A914201D1F8
:1011D00020200DE0114A914201D1402008E0104A40
:1011E000914201D1802003E00E4A914200D188153E
:1011F00070470000002C014000340140004C0140C9
:10120000005001400054014000040040000800402C
:10121000000C004000100040001400400018004086
:10122000001C00400020004010B54FF44070FFF754
:10123000C1FA00F0FFF800F0C5F800F001F810BDA9
:1012400010B500F055F800F001F810BD08B5012107
:101250004FF49A70FFF7C8FA03208DF802000420BB
:101260008DF80300C002ADF8000069461C48FFF786
:10127000A5F80120ADF8000069461A48FFF79EF86E
:101280004FF48070ADF8000069461748FFF796F8F4
:101290004FF40040ADF8000069461348FFF78EF8A0
:1012A0000820ADF8000069461048FFF787F84FF4B2
:1012B0008040ADF8000069460B48FFF77FF84FF417
:1012C0000050ADF8000069460748FFF777F8802026
:1012D000ADF8000069460448FFF770F808BD00004B
:1012E00000100140000801400020014000140140AE
:1012F0000021284A9172D1721173002018E06421F4
:10130000254A02EB001211810221234A02EB00124E
:1013100011710021204A02EB001291721E4A02EB69
:101320000012D1721C4A02EB00121173411CC8B2A8
:101330000A28E4DB642218490A87052281F83B2049
:101340006422A1F84820052281F84B206422A1F8EC
:101350005820052281F85B206422A1F8682005222C
:1013600081F86B200D490C4A11600D4911610D493E
:1013700011620D4911630D4911640D4911650D4943
:1013800011660D4911670D49C2F880100C49C2F869
:101390009010704744010020A4000020C1050008FF
:1013A000290600085D06000891060008A906000845
:1013B000C1060008D9060008F10600080907000860
:1013C000F505000808B501218020FFF70DFA01207E
:1013D00000F03AF8022000F037F8032000F034F86B
:1013E000042000F031F803208DF8020010208DF861
:1013F0000300C001ADF8000069460D48FEF7DEFFAE
:101400008020ADF8000069460948FEF7D7FF4FF489
:101410008070ADF8000069460548FEF7CFFF4FF435
:101420000070ADF8000069460148FEF7C7FF08BD2F
:10143000001C014010B5FFF741FDFFF777F8FFF7FB
:101440004DFAFEF7A9FF10BD411EC8B220B94FF4F6
:1014500000610B4A116011E0012803D18021084A84
:1014600011600BE0022803D1C101054A116005E0BB
:10147000032803D14FF40071014A11607047000046
:10148000101C0140012806D11049096881F400614F
:101490000E4A116019E0022806D10C49096881F052
:1014A00080010A4A116010E0032806D10749096843
:1014B00081F48071054A116007E0042805D10349D1
:1014C000096881F40071014A116070470C1C0140E9
:1014D0002DE9FF5F04460D4691469A4674488442C2
:1014E00002D07448844207D12046FFF737FE834676
:1014F0000121FFF779F906E02046FFF72FFE83462A
:101500000121FFF761F9002D41D100212046FFF7AD
:10151000D2FAAB466648844202D14FF0190B28E05C
:10152000B4F1804F02D14FF01C0B22E0624884429C
:1015300002D14FF01D0B1CE06048844202D14FF0F5
:101540001E0B16E05E48844202D14FF0320B10E0D1
:101550005C48844202D14FF0360B0AE05A4884427C
:1015600002D14FF0370B04E05248844201D14FF0D2
:101570002C0B8DF800B08DF801908DF802A00020A2
:101580008DF803006846FFF7DDF8BDE8FF9F484887
:1015900084420BD04748844208D04C48844205D04E
:1015A0004B48844202D04B48844202D14A480668E4
:1015B00001E049480668642D0AD242F20F7842F2EF
:1015C0001070B6FBF0F0B0FBF5F0401E87B213E0F0
:1015D00040F6B830854209D24FF063086420B6FB6C
:1015E000F0F0B0FBF5F0401E87B205E04FF00008C8
:1015F000B6FBF5F0401E87B2ADF80870ADF8048078
:101600000020ADF80A00ADF806008DF80C0001A925
:101610002046FFF777FA01212046FFF73DFA012225
:1016200011462046FFF764FA01212046FFF743FAEE
:101630004FF0000B1E48844202D14FF0190B28E0F6
:10164000B4F1804F02D14FF01C0B22E01A488442C3
:1016500002D14FF01D0B1CE01848844202D14FF01C
:101660001E0B16E01648844202D14FF0320B10E0F8
:101670001448844202D14FF0360B0AE012488442EB
:1016800002D14FF0370B04E00A48844201D14FF0F9
:101690002C0B8DF800B08DF801908DF802A0012080
:1016A0008DF803006846FFF74DF800BF6DE70000B6
:1016B000002C0140003401400004004000080040BC
:1016C000000C00400010004000140040004C01409D
:1016D0000050014000540140280000202DE9F04155
:1016E00005460E4617462846FEF73EFE04460CB950
:1016F000BDE8F081E06908B1E06980473A463146CB
:101700002046FFF7A5FB00BFF2E713B50446012210
:1017100001A92046FFF7E2FF1CBD70B504460D4647
:10172000E1B20020FFF7F1FF204670BD012080F3F9
:10173000108800BFFFF778FD00F0D6FBFEF7B0FD84
:1017400000F002FD00BFFEE710B504460E48006839
:1017500044600E480068844207D20B480168091DA6
:101760000B48006800F010FB0CE007480168091DF9
:101770000848006800F008FB07480068844201D26E
:101780000548046010BD00003C000020500000200F
:1017900044000020400000206C0000202DE9F041B2
:1017A00005460F461FB9A80000F0DEF900E03846F4
:1017B000064656B1582000F0D7F904460CB126630E
:1017C00004E0304600F03EFB00E0002424B1A90014
:1017D000A522206BFEF71AFD2046BDE8F08100002F
:1017E00070B523E000F0E4FC1348006808B901205C
:1017F00000E00020054600F041FFBDB900F0EAFA24
:101800000D48C068C468201D00F048FA0B48006805
:10181000401E0A4908600A480068401E08490860DE
:1018200000F0FAFA204600F00DF800BF0448006806
:101830000028D7D170BD00001C0A00204C000020F9
:101840004800002010B50446206B00F0FBFA20464B
:1018500000F0F8FA10BD000030B54FF48843174887
:1018600000F007042CB1C01D20F00700134C041B2E
:101870001B1B0246124C22600024114D6C60D018D4
:10188000083820F007000F4C206000240D4D2D6813
:101890006C600C4D2D682C601146441A4C60094C4C
:1018A00024680C60084D4C682C60084D4C682C6016
:1018B0004FF00044064D2C6030BD0000440A00206B
:1018C0008800002090000020980000209400002054
:1018D0009C00002000BFFFF783FF03480068012839
:1018E000F9D900F0F5FAF6E77C0900202DE9F04778
:1018F00004460F4616469946DDF82080002507E08D
:10190000795D04F134004155785D00B902E06D1C49
:10191000102DF5D300BF002143200155052E00D323
:101920000426E662201D00F02CFA04F1180000F0F5
:1019300028FA2461C6F10500A06164620020E06419
:10194000206584F85400BDE8F087000010B500243D
:1019500007E004EB84010F4A02EB810000F004FA77
:10196000641C052CF5D30C4800F0FEF90B4800F080
:10197000FBF90B4800F0F8F90A4800F0F5F90A48BD
:1019800000F0F2F904480949086004480849086071
:1019900010BD00007C090020E0090020F4090020AF
:1019A000080A00201C0A0020300A00204000002005
:1019B0004400002010B50146164800E000680368A6
:1019C0008B42FBD30246436813448B4204D14368E5
:1019D0004C682344436001460A464B68134404683C
:1019E000A34211D10C4C03682468A34208D04B6871
:1019F0000468646823444B6003681B680B6005E05F
:101A0000054B1B680B6001E003680B60884200D047
:101A1000016010BD88000020900000202DE9F047F3
:101A200006460C4690460025206800284BD02046EC
:101A300041684968416000F1080142688A4202D168
:101A40004168496841604168D1F80C9000BF204668
:101A500041684968416000F1080142688A4202D148
:101A60004168496841604168CF6806EB45100760EE
:101A700007F1340006EB45114860786C06EB451120
:101A8000886006EB451080F80C80F86A06EB45117B
:101A90000861B8F1030F05D1B86A18B1022006EB4E
:101AA00045110873002006EB45114861F86C06EB00
:101AB00045118861386B00F023F806EB45118883E7
:101AC0006D1C4F45C3D12846BDE8F0870A49096817
:101AD000096809B9012100E0002121B14FF0FF316F
:101AE000064A116006E004490968C968C868034AE3
:101AF0004168116070470000400000206C00002029
:101B00000246002101E0521C491C1078A528FAD099
:101B1000890888B27047000007480068401C08B96F
:101B2000012000E0002018B9FEF750FB00BFFEE7DF
:101B3000FEF74CFB00BFFEE77C00002070B50546B9
:101B40000E4631462846FEF77AFB2846FEF770FB24
:101B5000044602E020202855641C0F2CFAD30020F4
:101B60002855281970BD00002DE9F04104464FF0BA
:101B7000000800F01DFB3C48006808B9FFF76CFE48
:101B80003A480068204000285DD19CB1083404F038
:101B9000070078B104F00700C0F10800044404F025
:101BA000070008B9012000E0002018B9FEF70EFB7D
:101BB00000BFFEE7002C46D02D480068844242D882
:101BC0002C4E3046056801E02E462D686868A0421C
:101BD00002D228680028F7D123480068854232D015
:101BE000306800F10808286830606868001B102819
:101BF00012D92F1907F0070008B9012000E00020D2
:101C000018B9FEF7E3FA00BFFEE76868001B7860CA
:101C10006C603846FFF7CEFE154968680968081AF7
:101C2000134908600846006813490968884203D2CE
:101C30000F480068104908600C4968680968084343
:101C400068600020286000F019FD08F0070008B95E
:101C5000012000E0002018B9FEF7B8FA00BFFEE747
:101C60004046BDE8F0810000900000209C0000206C
:101C7000940000208800002098000020001F4FF0F2
:101C800080730360001F0160001F034B0360143862
:101C90000260203870470000191B000801460A69DD
:101CA000D1E901309860D1E9010358605068884259
:101CB00001D188685060002008611068401E1060E3
:101CC000106870472DE9F041054688461646002405
:101CD000052700F06DFA1D480068804530D300BF2D
:101CE0007F1E07EB87021A4B03EB820105EB4410C2
:101CF0000122FFF793FE0444002FF1D105EB4410BD
:101D0000022214490968FFF789FE044405EB4410D8
:101D1000022211490968FFF781FE044405EB4410D3
:101D200004220E49FFF77AFE044405EB4410032217
:101D30000B49FFF773FE044416B10A48006830608F
:101D400000F09CFC2046BDE8F08100004C00002023
:101D50007C09002040000020440000201C0A0020D4
:101D6000300A00201000002000F1080141604FF00F
:101D7000FF31816000F10801C16001610021016053
:101D8000704700210161704710B502460B685C1C6A
:101D90000CB9106907E002F1080000E040684468EF
:101DA00024689C42FAD944684C604C68A160886001
:101DB00041600A611468641C146010BD42684A6086
:101DC00093688B60936859609160086103685B1C3D
:101DD0000360704710B5FEF7F9F90D480068401C24
:101DE0000B490860BFF34F8FBFF36F8F0846006841
:101DF00001280BD107480068C0B208B9012000E0F3
:101E0000002018B9FEF7E2F900BFFEE710BD0000A0
:101E10007C00002004ED00E010B50948006818B906
:101E2000FEF7D4F900BFFEE705480068401E0449EC
:101E300008600846006810B90020FEF7CEF910BD12
:101E40007C00002070B506463546002E31D0083D96
:101E50002C46184960680968084008B1012000E074
:101E6000002018B9FEF7B2F900BFFEE7206808B9F4
:101E7000012000E0002018B9FEF7A8F900BFFEE736
:101E80000C4960680968084098B1206888B9094918
:101E9000606809688843606000F08AF906496068F4
:101EA00009680844044908602046FFF783FD00F0F4
:101EB000E5FB70BD9C0000209400002003484FF01B
:101EC000E021486107200861704700003F190100C8
:101ED0004FF0805003490860BFF34F8FBFF36F8FFF
:101EE0007047000004ED00E010B50023012244F625
:101EF00020610248FFF7ECFA10BD0000001000401E
:101F000070B50446002634B31548006808B90120AE
:101F100000E0002018B9FEF759F900BFFEE700F015
:101F200047F91048006805190F480068001DFFF7C1
:101F3000B5FE50B90C48006890F82C10012088407C
:101F40000A4909688143094801602846FFF7FCFBFC
:101F500000F094FB06460EB9FFF7BAFF70BD000013
:101F600070000020500000203C00002054000020A1
:101F7000FEB50546002028702648006802902549D5
:101F800009684801FFF7F0FD0446002C40D06A467E
:101F900020460299FFF796FE029064210098B0FB5C
:101FA000F1F00090009800282FD00020019028E048
:101FB000019804EB401080690099B0FBF1F601989C
:101FC00004EB401041682846FFF7B8FD05464EB1C6
:101FD000019804EB401033460FA182692846FEF7B2
:101FE0009DFF07E0019804EB40100EA1826928468E
:101FF000FEF794FF2846FEF71BF905440198401CA4
:102000000190DDE901018842D2D32046FFF71AFF93
:10201000FEBD00004C000020092575090925752525
:10202000250D0A0009257509093C3125250D0A00F1
:1020300005E00220FFF726FAC820FFF761FFF8E766
:102040007FB50546002028702A480068039029497A
:1020500009684801FFF788FD0446002C49D000229A
:1020600020460399FFF72EFE03900020029039E0EE
:10207000029804EB4010007B012806D0022806D00D
:10208000032806D0042808D105E0522607E042269E
:1020900005E0532603E0442601E0002600BF00BF10
:1020A000029804EB401041682846FFF747FD0546BB
:1020B000029804EB40108068029904EB4111898B6F
:1020C000CDE90010029804EB401032460AA10369E2
:1020D0002846FEF723FF2846FEF7AAF80544029893
:1020E000401C0290DDE902018842C1D32046FFF77F
:1020F000A9FE7FBD4C00002009256309257509252F
:10210000750925750D0A000006E00320FFF7BAF9EE
:102110004FF49670FFF7F4FEF7E7000006E04FF487
:102120007A70FFF7EDFE02A0FEF7E8FEF7E7000089
:1021300068656C6C6F20776F726C64203132333459
:1021400035360D0A000000001FB5002000900190F8
:102150000290034680220FA10390104800F054F92A
:102160000446012C0FD1FEF731F8A01E0C4908607F
:1021700001200C49086000200B4908600B490860E9
:1021800000F0F2F804E01CB9FEF720F800BFFEE70B
:102190001FBD000049444C4500000000D518000850
:1021A0006C0000205800002050000020100000208B
:1021B00002480068401C0149086070477000002018
:1021C00010B52748006818B101202649086045E08D
:1021D0000020244908602448006824490860084613
:1021E00000682349096888420BD92249096801F12E
:1021F0004C00C96C1D4A12681D4B1B68D21A114451
:1022000001601A4800681A4908601B480068B0FA63
:1022100080F0C0F11F0404EB8400184951F820003D
:1022200008B1012000E0002018B9FDF7CFFF00BF82
:10223000FEE704EB8401114A02EB81004168496822
:10224000416000F1080142688A4202D14168496850
:1022500041604168C968074A116000BF10BD0000B5
:102260007000002060000020100000207800002096
:10227000740000203C000020540000207C09002055
:10228000FEB023E0FEF750FF0446002C1BD0012CCB
:1022900017D10FA0FEF732FE1AA0FEF72FFE01A8FD
:1022A000FFF7CEFE01A923A0FEF728FE23A0FEF72C
:1022B00025FE01A8FFF75CFE01A91EA0FEF71EFE89
:1022C00000E000BF00BF1420FFF71AFEDAE70000AD
:1022D0003D3D3D3D3D3D3D3D3D3D3D3D3D3D3D3D2E
:1022E0003D3D3D3D3D3D3D3D3D3D3D3D3D3D3D3D1E
:1022F0003D3D3D3D3D3D3D3D3D3D3D3D3D3D3D3D0E
:102300003D0D0A00C8CECEF1C3FB202020202020A6
:10231000C8CECEF1D7B4CCAC20D3C5CFC8BCB62084
:102320002020CAA3D3E0D5BB20C8CECEF1D0F2BACC
:10233000C50D0A0025730D0A000000000D0AC8CE65
:10234000CEF1C3FB20202020202020D4CBD0D0BC35
:10235000C6CAFD202020202020202020CAB9D3C3B7
:10236000C2CA0D0A000000001CB5224801460978C7
:102370000191FF21024611700146097800919DF8F4
:10238000001001F010011C4A117007211B4A116056
:1023900009E01A490968491E184A11609DF80010A1
:1023A0004906090E00919DF8001001F08001802976
:1023B000EFD0124909680902104A116011460988D4
:1023C00001F4E06111600B4A019911700C4800683A
:1023D00040F470000A4908600846006840F0704008
:1023E0000860FFF76BFD002006490860FDF7BCFEA2
:1023F00000201CBD00E400E08000002084000020DC
:1024000020ED00E07C0000202DE9FF4F81B08046E8
:1024100016469A46DDE90E5BB8F1000F03D1FDF7D1
:10242000D5FE00BFFEE7052D01D2012000E000200F
:1024300018B9FDF7CBFE00BFFEE730461099FFF755
:10244000ADF90446002C5DD0701E216B01EB8009B4
:1024500029F0070909F0070008B9012000E0002071
:1024600018B9FDF7B3FE00BFFEE700962A462046E6
:10247000119B0299FFF73AFA524641464846FFF748
:10248000FDFB2060BBF1000F01D0CBF80040FFF74F
:10249000A1FC25480068401C2349086023480068C7
:1024A00040B9224804600846006801280CD1FFF7B3
:1024B0004DFA09E01E48006830B91C480068C06A3F
:1024C000A84201D8194804601A480068401C1949FC
:1024D000086008460068606494F82C100120884069
:1024E00015490968084314490860E16A01EB810154
:1024F000124A02EB8100211DFFF760FC0127FFF764
:102500008BFC01E04FF0FF37012F09D1084800682C
:1025100030B106480068C06AA84201D2FFF7D8FC73
:10252000384605B0BDE8F08F4C0000203C0000208C
:102530005800002068000020540000207C09002082
:102540002DE9F0414FF0000841480068002872D1A1
:1025500040480068401C3F49086008460668DEB9EC
:102560003D480068006808B9012000E0002018B963
:10257000FDF72CFE00BFFEE73748076837480068C4
:10258000354908603548076035480068401C3449C3
:102590000860FFF79BFA00BF3248006886423CD3D0
:1025A00000BF2D480068006808B9012000E0002045
:1025B00020B14FF0FF302B4908602DE0264800681D
:1025C000C068C4686568AE4202D22648056023E050
:1025D000201DFFF763FBA06A18B104F11800FFF794
:1025E0005DFB94F82C10012088401F4909680843BE
:1025F0001D490860E16A01EB81011C4A02EB810080
:10260000211DFFF7DBFB1A49E06A0968C96A8842A5
:10261000C7D34FF00108C4E700BF15480068C06A7F
:1026200000EB8000114951F82000012808D94FF033
:10263000010805E0FFE70F480068401C0D490860ED
:102640000D48006808B14FF001084046BDE8F08130
:1026500070000020500000204000002044000020B6
:10266000640000206C000020540000207C09002041
:102670003C0000205C0000206000002070B50025B8
:102680003048006818B9FDF7A1FD00BFFEE7FFF76D
:10269000A1FB2C480068401E2A49086008460068D3
:1026A00000284BD128480068002847D024E027485C
:1026B000C068C46804F11800FFF7F0FA201DFFF7A6
:1026C000EDFA94F82C10012088402149096808434C
:1026D0001F490860E16A01EB81011E4A02EB81009B
:1026E000211DFFF76BFB1C49E06A0968C96A884233
:1026F00002D30120194908601448006808B9012074
:1027000000E000200028D2D01548006878B10AE027
:10271000FFF716FF10B1012010490860104800684B
:10272000401E0F4908600E4800680028F0D10B4891
:102730000068012802D10125FFF7CAFBFFF76CFBF7
:10274000284670BD700000204C000020080A0020C0
:10275000540000207C0900203C0000206000002084
:102760005C0000208427000800000020A400000076
:10277000440F000828280008A4000020A4550000E9
:10278000540F0008000000000000000000000000DE
:10279000000000000000000000000000010203042F
:1027A00001020304060708090204060800A24A04FD
:1027B00000000000000000000102030406070809F1
:1027C0000000000000000000000000000000000009
:1027D00000000000000000000000000000000000F9
:1027E00000000000000000000000000000000000E9
:1027F00000000000000000000000000000000000D9
:10280000AAAAAAAA00000000000000000000000020
:1028100000000000000000000000000000000000B8
:082820000000000000000000B0
:0400000508000131BD
:00000001FF
